:100000000C942F010C9457010C9457010C94570138
:100010000C9457010C9457010C9457010C94570100
:100020000C9457010C9457010C9466090C94950A92
:100030000C9457010C9457010C9457010C945701E0
:100040000C9457010C9457010C9457010C945701D0
:100050000C9457010C9457010C9457010C943206E0
:100060000C9457010C9457010C9457010C945701B0
:100070000C9457010C9457010C9457010C945701A0
:100080000C9457010C9457010C9457010C94570190
:100090000C9457010C9457010C9457010C94570180
:1000A0000C9457010C9457010C945701080B000253
:1000B0000202010009040000010202000005240000
:1000C0001001052401010104240206052406000193
:1000D0000705810310004009040100020A00000026
:1000E00007050202400000070583024000000403E8
:1000F000090422034100640061006600720075007B
:1001000069007400200046006C006F0072006100FE
:1001100020002000180341006400610066007200A6
:100120007500690074002000200020001201000208
:10013000000000409A230480000101020001120126
:100140000002020000409A23048000010102000125
:1001500000C18081C105010902A1010901A1008539
:100160000105091901290315002501950375018170
:10017000029501750581030501093009310938151A
:1001800081257F750895038106C0C005010906A178
:10019000018502050719E029E7150025017501957C
:1001A00008810295017508810395067508150025DB
:1001B000650507190029658100C0090402000103D3
:1001C00000000009210101000122650007058403E8
:1001D00040000100000000000000002A2B28000061
:1001E000000000000000000000000000000000000F
:1001F0000000002C9EB4A0A1A2A434A6A7A5AE36F0
:100200002D3738271E1F20212223242526B333B65D
:100210002EB7B89F8485868788898A8B8C8D8E8F30
:10022000909192939495969798999A9B9C9D2F3133
:1002300030A3AD350405060708090A0B0C0D0E0F97
:10024000101112131415161718191A1B1C1DAFB113
:10025000B0B50000930162058B07B209180C112498
:100260001FBECFEFDAE0DEBFCDBF11E0A0E0B1E00E
:10027000EEEDFAE102C005900D92A833B107D9F76F
:1002800011E0A8E3B1E001C01D92AA38B107E1F77F
:1002900012E0CEE5D2E004C02297FE010E94690D73
:1002A000C435D107C9F70E945D080C946D0D0C94FC
:1002B0000000579A08951F93CF93DF93382F492F4B
:1002C00080913E018F5F877080933E0180FD02C068
:1002D00020E001C020E881FD206482FD2062122F11
:1002E000105F832F942F9C01F901C0E0D0E062855C
:1002F000662331F080E091E070E00E94400D6F5F76
:100300006783212F269F212D11242483662311F03A
:100310006150678321963196C330D10541F7DF9153
:10032000CF911F91089508950F931F93DF93CF935B
:1003300000D000D000D0CDB7DEB788E391E062E016
:1003400070E044E10E9486048091000190910101D7
:1003500045E058E0849F9001859F300D949F300DBB
:100360001124275E394C3093010120930001C9010B
:10037000A0E0B0E0880F991FAA1FBB1FCD01AA27DC
:10038000BB278C01000F111F080F191F085C1E4F9F
:10039000F8018081882331F48181882319F48281D6
:1003A0008823D9F00091180110911901C801F801B2
:1003B00060810E94CF04C80144E150E060E070E039
:1003C0000E94660526960FB6F894DEBF0FBECDBF1D
:1003D000CF91DF911F910F910895249FC001259F18
:1003E000900D349F900D1124875E994C90930101DC
:1003F0008093000189838FEF8A838B83CE010196DE
:10040000BE016C5F7F4F0E9492053C81F801208104
:10041000230F08F42FEF20833D812181230F08F45F
:100420002FEF21833E812281230F08F42FEF2283B7
:10043000B9CFEF92FF920F931F93CF93DF93EC010D
:100440008B017A0180918201882309F04DC082E8F6
:1004500091E00E947208892B09F446C01092740141
:10046000109273018FEF80937701809378018093CE
:10047000790180937A0180937B0180937C0181E0F4
:1004800080937D0110927F0110927E01109276017F
:10049000109275018091400190914101892B31F4B6
:1004A00081E791E09093410180934001E091420106
:1004B000F0914301309721F081E791E095838483A7
:1004C00081E791E090934301809342011092810172
:1004D0001092800180E191E090937201809371010C
:1004E00082E891E00E947C0881E791E0BE01A801CA
:1004F00097010E949E04DF91CF911F910F91FF9071
:10050000EF90089560ED77E080E090E00E94BA06F9
:1005100088E391E062E070E040E050E00E94190260
:10052000E0911801F09119018FE7808308954F92AF
:100530005F926F927F928F929F92AF92BF92CF9273
:10054000DF92EF92FF920F931F93DF93CF93CDB77C
:10055000DEB72E970FB6F894DEBF0FBECDBF5C019D
:10056000942E852EF9011E2DDC011C969C917A8318
:1005700069834B835C8380818B8781818C878281B7
:100580008D87913029F4CE0101960E945B0106C04F
:100590001A86198618861F821E821D8289819A8179
:1005A000810F911D9A838983002311F480E002C09A
:1005B000812F8D5F8E870E949406F50127853089F3
:1005C000621B730B62337105B0F3F89439814A8171
:1005D000CBB0F0E8CF2ADBB01FE7412ED420DBB848
:1005E00079858E81781B7E83E981FA8181818823D8
:1005F00011F420E004C0282F270F08F42FEF832FD9
:10060000942FFC01FC84622F2F2D629F612D1124F9
:100610001E85AB81BC81EB840D859D818F816984B2
:1006200058847A8450E040E030E020E0F0C0462C6E
:10063000471A742D452C491A942D472C481A842D9D
:100640001197CBB867FFDBB8208133278894DBB8DC
:100650002111290FCBB866FFDBB808F42FEF88947F
:10066000002CDBB8E0FC320FCBB865FFDBB8379568
:100670008894E1FC320FDBB837958894CBB864FFDF
:10068000DBB8E2FC320F37958894DBB8E3FC320F1D
:10069000CBB863FFDBB837958894E4FC320FDBB846
:1006A00037958894CBB862FFDBB8E5FC320F3795FD
:1006B0008894DBB8E6FC320FCBB861FFDBB8379526
:1006C0008894E7FC320FDBB837958894CBB860FF8D
:1006D000DBB800C000C0DBB800C0CBB837FFDBB868
:1006E000228144278894DBB82111280FCBB836FF2C
:1006F000DBB808F42FEF8894002CDBB800FD420F24
:10070000CBB835FFDBB84795889401FD420FDBB8C5
:1007100047958894CBB834FFDBB802FD420F47956C
:100720008894DBB803FD420FCBB833FFDBB84795A5
:10073000889404FD420FDBB847958894CBB832FF0C
:10074000DBB805FD420F47958894DBB806FD420FE4
:10075000CBB831FFDBB84795889407FD420FDBB873
:1007600047958894CBB830FFDBB8E10FF11D889432
:10077000002CDBB800C0CBB847FFDBB8218166276F
:100780008894DBB82111270FCBB846FFDBB808F4FB
:100790002FEF8894002CDBB8F0FC620FCBB845FF3C
:1007A000DBB867958894F1FC620FDBB86795889495
:1007B000CBB844FFDBB8F2FC620F67958894DBB8D6
:1007C000F3FC620FCBB843FFDBB867958894F4FC69
:1007D000620FDBB867958894CBB842FFDBB8F5FCB5
:1007E000620F67958894DBB8F6FC620FCBB841FFC7
:1007F000DBB867958894F7FC620FDBB8679588943F
:10080000CBB840FFDBB800C000C0DBB800C0109719
:1008100009F00DCF409148015091490160914A0182
:1008200070914B01292D382DC901B5E0880F991F12
:10083000BA95E1F7220F331F821B930B892F99275B
:1008400086958695A0E0B0E0840F951FA61FB71F80
:100850008093480190934901A0934A01B0934B01C2
:1008600078940E949406D50150967C936E931F97BE
:100870002E960FB6F894DEBF0FBECDBFCF91DF919D
:100880001F910F91FF90EF90DF90CF90BF90AF90AE
:100890009F908F907F906F905F904F900895EF9210
:1008A000FF920F93DF93CF9300D00F92CDB7DEB7B7
:1008B000AB0119821A821B829E012F5F3F4FB90143
:1008C00000E0EE24FF240E9497020F900F900F90FB
:1008D000CF91DF910F91FF90EF900895EF92FF92EB
:1008E0000F9301E0EE24FF240E9497020F91FF90E6
:1008F000EF900895EF92FF920F9300E0EE24FF2413
:100900000E9497020F91FF90EF9008954095FC018F
:1009100080E090E00FC02081249F212D2083218141
:10092000249F212D21832281249F212D2283112484
:10093000019633968617970770F30895CF92DF924A
:10094000EF92FF920F931F93CF93DF938C017B0164
:100950001216130624F06A01C0E0D0E002C069015B
:10096000EA01D801ED91FC910480F581E02DC801E8
:100970000995CE01880F991F8C0F9D1F8E0D9F1D0D
:10098000F80193838283C586D686C801DF91CF9113
:100990001F910F91FF90EF90DF90CF9008952F92CD
:1009A0003F924F925F926F927F928F929F92AF92FF
:1009B000BF92CF92DF92EF92FF920F931F93DF933C
:1009C000CF9300D000D000D0CDB7DEB76C830091BC
:1009D000400110914101862E9924AA24BB24CE0106
:1009E00004969E838D8351C0D801ED91FC9111979F
:1009F0002280338012966D907C9013971D964D90B7
:100A00005C901E9719821A821B82BC81BB2381F1E4
:100A100068017E010894E11CF11CF60126816185C4
:100A20002223D9F06623C9F070E080E090E06F5F88
:100A30007F4F8F4F9F4F30E040E050E02F5F3F4FA0
:100A40004F4F5F4F0E94210DA50194010E94210D7F
:100A5000BC0188279927D7016C930894C11CD11C2D
:100A60000894E11CF11CED81FE81EE16FF06A9F64B
:100A7000C801B301A2019E012F5F3F4FF10109950B
:100A8000D80114960D911C9115970115110509F0C7
:100A9000ABCF26960FB6F894DEBF0FBECDBFCF9179
:100AA000DF911F910F91FF90EF90DF90CF90BF905B
:100AB000AF909F908F907F906F905F904F903F90FE
:100AC0002F9008958FEF80933F010895AF92BF92CA
:100AD000CF92DF92EF92FF920F931F93CF93DF930A
:100AE000EC015A016B010E9486067B018C0104C057
:100AF000CE0168810E94CF040E9486066E197F098C
:100B0000800B910B6A157B058C059D0588F3DF91A1
:100B1000CF911F910F91FF90EF90DF90CF90BF90FA
:100B2000AF9008951F93FC01DB01808171811281D8
:100B3000482F4F71440F440F440F642F25E5629FE7
:100B4000612D1124282F30E087FD24C0C901807257
:100B5000907026FD0CC0892B29F4562F509580E00B
:100B6000462F11C0462F4B5A80E05BEA0CC0892B00
:100B700061F4242F3AEA239F212D11245BEA521BB2
:100B8000462F455580E030E02AC080E0462F409552
:100B9000362F11C0C9018072907026FD13C0892BB9
:100BA00061F480E0242F3AEA239F212D11244BEA9F
:100BB000421B322F3B5A50E012C080E0362F309556
:100BC000562F0CC0892B29F4562F5B5A80E03BEA44
:100BD00004C0562F555580E035E5361B40E07F3F79
:100BE00009F41BC0552321F0579F512D09F05F5F79
:100BF000442321F0479F412D09F04F5F332321F01B
:100C0000379F312D09F03F5F1124272F2095229F18
:100C1000212D1124520F420F320F1F3F09F41AC029
:100C200020E0112321F0119F212D09F02F5F552382
:100C300021F0529F512D09F05F5F442321F0429F24
:100C4000412D09F04F5F332321F0329F312D09F000
:100C50003F5F11245C9311964C93119712963C932D
:100C60001F9108951F920F920FB60F9211242F9388
:100C70003F934F935F936F937F938F939F93AF9324
:100C8000BF93209148013091490140914A01509110
:100C90004B0170914C01DA01C9010296A11DB11DF1
:100CA000672F6A5F6D3730F06D57DA01C90103961F
:100CB000A11DB11D60934C0180934801909349019F
:100CC000A0934A01B0934B0180914401909145015A
:100CD000A0914601B09147010196A11DB11D8093DD
:100CE000440190934501A0934601B0934701BF9101
:100CF000AF919F918F917F916F915F914F913F91B4
:100D00002F910F900FBE0F901F9018958FB7F894EA
:100D1000209148013091490140914A0150914B0185
:100D20008FBFB901CA0108959FB7F894209144017B
:100D300030914501409146015091470186B5A89BED
:100D400006C08F3F21F02F5F3F4F4F4F5F4F9FBF38
:100D5000542F432F322F2227280F311D411D511DA3
:100D600083E0220F331F441F551F8A95D1F7B90125
:100D7000CA0108959B01AC017FB7F89480914401AA
:100D800090914501A0914601B091470166B5A89B9D
:100D900005C06F3F19F00196A11DB11D7FBFBA2F8D
:100DA000A92F982F8827860F911DA11DB11D63E0E3
:100DB000880F991FAA1FBB1F6A95D1F7BC012DC0D0
:100DC000FFB7F8948091440190914501A0914601AC
:100DD000B0914701E6B5A89B05C0EF3F19F0019619
:100DE000A11DB11DFFBFBA2FA92F982F88278E0FE5
:100DF000911DA11DB11DE3E0880F991FAA1FBB1F04
:100E0000EA95D1F7861B970B885E9340C8F2215074
:100E100030404040504068517C4F2115310541051C
:100E2000510571F60895789484B5826084BD84B5C7
:100E3000816084BD85B5826085BD85B5816085BDD5
:100E4000EEE6F0E0808181608083E1E8F0E01082EE
:100E5000808182608083808181608083E0E8F0E02F
:100E6000808181608083E1EBF0E080818460808319
:100E7000E0EBF0E0808181608083E1E9F0E0808157
:100E800082608083808181608083E0E9F0E08081FE
:100E900081608083E1ECF0E08081846080838081E8
:100EA00082608083808181608083E3ECF0E08081D8
:100EB00081608083E0ECF0E0808182608083E2ECFE
:100EC000F0E0808181608083EAE7F0E080818460E7
:100ED0008083808182608083808181608083808143
:100EE000806880830895DF93CF930F92CDB7DEB7EC
:100EF000FC016983A081B18112962D913C911397D9
:100F0000BE016F5F7F4F41E050E0F90109950F90FE
:100F1000CF91DF9108951092500110924F0188EE09
:100F200093E0A0E0B0E08093510190935201A09330
:100F30005301B09354018EE191E090934E01809360
:100F40004D018FEF9FEF90935A01809359010895BF
:100F5000CF93DF93EC0180910901882341F083E076
:100F60000E94D3091816190614F49C0106C081E0EA
:100F700090E09B838A8320E030E0C901DF91CF912C
:100F8000089583E00E945C090895FC01248535855D
:100F900037FD05C08FEF9FEF9587848704C082E0FF
:100FA0000E94E7089C01C9010895CF93DF93EC01EB
:100FB0008C859D8597FF05C082E00E94E7089D878C
:100FC0008C878C859D85DF91CF910895FC01848568
:100FD000958597FD08C082E00E94AA08282F30E07E
:100FE0002F5F3F4F05C082E00E94AA08282F30E003
:100FF000C9010895FC0180818E5F808380E86CEADE
:1010000070E042E450E00E9400090895FC018181F3
:101010009081913A59F4813209F04CC080E062E04D
:1010200071E047E050E00E94000942C0913209F0AF
:1010300041C0803239F482E091E067E070E00E94C4
:10104000440936C0823209F035C08281809309019B
:101050008091020190910301A0910401B0910501DA
:10106000805B9440A040B04019F58091090180FD5B
:1010700012C087E797E790930108809300082BE060
:1010800088E190E00FB6F894A895809360000FBEB9
:10109000209360000DC088E10FB6F8948093600043
:1010A000109260000FBEA8951092010810920008DF
:1010B00081E0089580E008950895CF93DF930E9422
:1010C00013070E945C0883E691E00E94B3090E9426
:1010D0008202C0E0D0E00E9494012097E1F30E94D8
:1010E0000000F9CFFC0120E030E08081882311F47A
:1010F00021E030E0C9010895FC0181E0808308957A
:10110000CF92DF92EF92FF920F931F93CF93DF93D3
:101110007C016B018A01C0E0D0E00FC0D6016D9167
:101120006D01D701ED91FC910190F081E02DC70197
:101130000995C80FD91F015010400115110571F70D
:10114000CE01DF91CF911F910F91FF90EF90DF9033
:10115000CF9008959FB7F89487708093E9008091AD
:10116000F2009FBF0895282F80915D018823C1F070
:1011700057FF1AC015C0289A90935C018091F10026
:101180008193E217F307B9F74115510539F08091C2
:10119000F200882319F48BE68093E800AFBF02C009
:1011A0004FEF5FEFCA010895AFB7F894277020930F
:1011B000E9008091F200282F30E0241735070CF465
:1011C000A901FB019B01240F311D94E6DACFDF93C7
:1011D000CF930F92CDB7DEB7BE016F5F7F4F41E077
:1011E00050E00E94B308019719F02FEF3FEF03C0C2
:1011F0008981282F30E0C9010F90CF91DF910895A8
:10120000FF920F931F93F82E142F052F409160012A
:1012100050916101212F302FC901DC01FB016EEFDC
:1012200029C0F7FE02C0949101C0908120915E0117
:1012300030915F0124173507ACF48091E800857088
:10124000E1F38091E80082FF03C02FEF3FEF17C06A
:101250009093F100C90101968F739070892B11F45E
:101260006093E8002F5F3F4F30935F0120935E0152
:10127000119731961097A9F6812F902F9C01C901E3
:101280001F910F91FF9008959C018091E80082FFCB
:10129000FCCFF901260F311D03C08091F10081932D
:1012A000E217F307D1F7289A84E680935C018BEF6D
:1012B0008093E800CB0108958093E9008091F200CB
:1012C000882319F08AE38093E80008951F920F9213
:1012D0000FB60F9211248F939F938091E10010928B
:1012E000E100982F83FF0FC01092E90081E0809306
:1012F000EB001092EC0082E38093ED0010925D0110
:1013000088E08093F00092FF26C083E08093E9009C
:101310008091F200882319F08AE38093E80080919D
:101320005B01882351F080915B01815080935B01C8
:1013300080915B01882309F45D9880915C0188238A
:1013400051F080915C01815080935C0180915C013F
:10135000882309F428989F918F910F900FBE0F90CA
:101360001F901895089510925D0181E08093D70039
:1013700080EA8093D80082E089BD09B400FEFDCFE9
:1013800061E070E080E090E00E94BA0680E980931E
:10139000D8008CE08093E2001092E000559A209AE9
:1013A0005D98289808955F926F927F928F929F9296
:1013B000AF92BF92CF92DF92EF92FF920F931F9363
:1013C000CF93DF93E82E842E752E80915D018823C4
:1013D00071F18B01242F352FC901EC017AEFF72E23
:1013E00067E0962E9E2050E4552E8E2D90E040E230
:1013F000A42EB12CA822B9223AE3632E20E4C22EF7
:10140000D12CC822D9225CC09FB7F8949092E900F1
:101410008091E80085FD02C020E004C08091F200C8
:10142000252D281B9FBF222361F4FA9419F42FEF76
:101430003FEF51C061E070E080E090E00E94BA06AA
:101440003FC0822F90E0C817D9070CF42C2F4FB75C
:10145000F8949092E9008091E80085FF30C0C21BAB
:10146000D109A114B10421F406C01092F100215059
:101470002223D9F719C0E7FC03C0F801922F10C04E
:10148000C801322F06C0FC010196E491E093F100FF
:1014900031503323C1F706C081918093F100915000
:1014A0009923D1F7020F111D8091E80085FF05C037
:1014B000209729F4C114D10411F06092E8004FBFC5
:1014C000209709F0A1CF5D9A84E680935B01282DD7
:1014D000372DC9019C01C901DF91CF911F910F9157
:1014E000FF90EF90DF90CF90BF90AF909F908F9044
:1014F0007F906F905F9008950F931F93DF93CF932A
:101500000F92CDB7DEB719828E010F5F1F4FC80152
:101510000E94FA07C8010E94150D898190E00F9082
:10152000CF91DF911F910F9108951F920F920FB6E7
:101530000F921124EF92FF921F932F933F934F939B
:101540005F936F937F938F939F93AF93BF93EF932B
:10155000FF93DF93CF93CDB7DEB76197DEBFCDBFEB
:101560001092E9008091E80083FF0FC1FE013196DF
:101570009E01275F3F4F03C08091F1008193E217E6
:10158000F307D1F7289A84E680935C0182EF809379
:10159000E800998197FF05C08091E80080FFFCCFAB
:1015A00003C08EEF8093E800292F30E0C9018076D8
:1015B0009070892B09F0C2C08A81882329F4109287
:1015C000F1001092F100D6C0813009F4D3C083300D
:1015D00009F4D0C0853049F48091E80080FFFCCF49
:1015E0008B8180688093E300C5C0863009F07CC0A1
:1015F0001C81EF80F8841230C1F51092E90010923E
:101600005F0110925E0110926101109260010E94D0
:101610007C0A99E0FE013996DF01292F1D922A9557
:10162000E9F799871A8791E09E8790E8988B9AEF5F
:10163000998B20915E0130915F01275F3F4F3C877E
:101640002B878D871092E90010925F0110925E0146
:10165000F0926101E092600180E0BF0149E050E05A
:101660000E9400090E947C0A85C01092E900109235
:101670005F0110925E01F0926101E092600112320E
:1016800041F482E290E00E940D0D892B09F476C0AE
:1016900071C0113079F488E0E816F10419F481E0A2
:1016A0008093620180916201882309F06BC0ECE2B3
:1016B000F1E013C0133009F061C08B81882319F465
:1016C000EEEEF0E00AC0823019F4E2EFF0E005C07F
:1016D000813009F053C0E4E1F1E0449180E8BF01BA
:1016E00050E00E94000946C0873009F447C08830A6
:1016F00021F481E08093F1003DC08930D9F5237059
:101700003070232BD9F5E1E5F1E091E031E026E3FB
:101710009093E9003093EB0084918093EC00209348
:10172000ED009F5F3196953099F78EE78093EA0040
:101730001092EA008B8180935D011CC08F81988597
:101740001092E90010925F0110925E019093610186
:10175000809360018D81882329F4CE0101960E9437
:10176000060806C0823051F4CE0101960E94DE0BBD
:10177000882321F08EEF8093E80007C081E28093F8
:10178000EB0003C0EEE3F1E0A8CF6196DEBFCDBF72
:10179000CF91DF91FF91EF91BF91AF919F918F9189
:1017A0007F916F915F914F913F912F911F91FF908A
:1017B000EF900F900FBE0F901F901895FC01918134
:1017C0008081813A31F4913089F080E0933089F45E
:1017D0000DC0813269F49B3021F4828180930A012B
:1017E00005C09A3029F4828180930B0181E008952D
:1017F00080E00895EF92FF920F931F938C01E62EE5
:10180000DC01ED91FC910480F581E02D0995F82E25
:10181000D801ED91FC910680F781E02DC8016E2D75
:1018200009958F2D90E01F910F91FF90EF900895F3
:101830001092640110926801109267018EE291E0AB
:1018400090936601809365010895EF92FF920F9344
:101850001F93DF93CF930F92CDB7DEB789838B01B0
:101860007A0184E0BE016F5F7F4F41E050E00E944B
:10187000D30984E4B801A7010E94D3090F90CF9146
:10188000DF911F910F91FF90EF90089582E048E063
:1018900050E00E94250C0895FC01168217821086E4
:1018A00011861286138614823496BF010E94460C5C
:1018B0000895DC01683810F0685829C0E62FF0E080
:1018C00067FF13C0E058F04081E090E002C0880F4D
:1018D000991FEA95E2F7809514962C911497282386
:1018E00014962C93149760E012C0ED52FE4F649151
:1018F000662319F420E030E01DC067FF08C014968D
:101900008C9114978D7F14968C9314976F77FD01AB
:1019100090E0662321F08681861709F416829F5F86
:1019200031969630B1F7CD011496BD010E94460C58
:1019300021E030E0C9010895CF93DF93DC016838DE
:1019400010F0685825C0E62FF0E067FF12C0E0589D
:10195000F04081E090E002C0880F991FEA95E2F71D
:1019600014962C911497282B14962C93149760E0BE
:101970000FC0ED52FE4F64916623D9F167FF08C096
:1019800014968C911497826014968C9314976F77A9
:1019900016968C9116978617A9F117968C91179722
:1019A000861781F118968C911897861759F1199618
:1019B0008C911997861731F11A968C911A97861780
:1019C00009F11B968C911B978617E1F0ED01E0E081
:1019D000F0E09E2F8E81882321F4EA0FFB1F66839F
:1019E00006C09F5F31962196E630F10591F796305B
:1019F00049F481E090E013969C938E93129720E037
:101A000030E007C0CD011496BD010E94460C21E0D4
:101A100030E0C901DF91CF91089580E865E571E07C
:101A200045E650E00E9400090895FC0180818F5F27
:101A3000808380E86AEB71E049E150E00E94000990
:101A40000895629FD001739FF001829FE00DF11D08
:101A5000649FE00DF11D929FF00D839FF00D749F28
:101A6000F00D659FF00D9927729FB00DE11DF91FD4
:101A7000639FB00DE11DF91FBD01CF011124089531
:101A800097FB092E07260AD077FD04D00CD006D08C
:101A900000201AF4709561957F4F0895F6F79095A0
:101AA00081959F4F0895AA1BBB1B51E107C0AA1F38
:101AB000BB1FA617B70710F0A61BB70B881F991FEF
:101AC0005A95A9F780959095BC01CD010895EE0F28
:0E1AD000FF1F0590F491E02D0994F894FFCFCC
:101ADE00390500E1000000000000010100000000D7
:101AEE007A046E0459014F043F0100000000730791
:101AFE00A807E607C507D507C10700000000FA0BC7
:081B0E0080089C0C590C4C0CE2
:00000001FF
